:020000040000FA
:100000005A201B2A831203131F3083120313A100EB
:10001000831203132108003A03193B2883120313A8
:10002000A11C16284D2007305E2119284D200930CB
:100030005E218312031321080539043A031D232886
:100040004D200B305E21831203138C1E08286C2078
:1000500083120313A2000A3A031921102208083A56
:10006000031D3428A110A11122080C3A031D3A28BF
:10007000211121120828080000305E216C20A30005
:10008000003A03194C280B2201305E216C209A2083
:10009000A30B442811223C20080083120313FF30D5
:1000A000A4000330A500A40B56285928A50B5628F8
:1000B0005328080066215E207C2108008316031364
:1000C000093085002030860000308700831203133A
:1000D0008501860187010800831203138C1E6E2898
:1000E000831203131A08080003305E216C20A60057
:1000F000003A0319882873216D2104305E216C2099
:1001000006219B215E2183120313A60B7D287428F0
:10011000080002305E216C20A700003A03199928DC
:100120006D217321D0205E2183120313A70B922827
:10013000892808008312031385120512A800A81B42
:100140008516A81F851205160512281B8516281F5F
:10015000851205160512A81A8516A81E8512051601
:100160000512281A8516281E851205160512A819CB
:100170008516A81D85120516051228198516281D35
:10018000851205160512A8188516A81C85120516D5
:10019000051228188516281C851205160512080058
:1001A00083120313051005110518A917051CA913BF
:1001B0000515051105182917051C29130515051125
:1001C0000518A916051CA9120515051105182916EB
:1001D000051C2912051505110518A915051CA911DD
:1001E0000515051105182915051C291105150511F9
:1001F0000518A914051CA9100515051105182914C1
:10020000051C291005150511290808008312031380
:10021000851005110510AA00AB01AA1B8514AA1FA1
:1002200085100518AB17051CAB13051505112A1B06
:1002300085142A1F851005182B17051C2B1305156F
:100240000511AA1A8514AA1E85100518AB16051CDF
:10025000AB12051505112A1A85142A1E85100518DA
:100260002B16051C2B1205150511AA198514AA1D9C
:1002700085100518AB15051CAB11051505112A19BC
:1002800085142A1D851005182B15051C2B11051525
:100290000511AA188514AA1C85100518AB14051C95
:1002A000AB10051505112A1885142A1C8510051890
:1002B0002B14051C2B1005150511080083120313C0
:1002C000990083160313981C6329080083120317EF
:1002D0009E01831203179F010800831203138714E2
:1002E00087108714080083120313071007140710E0
:1002F0000715071107150800831203138B130B133F
:10030000831603138C12831603139A0183160313A7
:100310000C309900831603139B11831603131815D1
:10032000181298119816181383120313981118169F
:10033000181398170800831203132B0808000530C0
:100340005E216C20AC00003A0319B2290B22063062
:100350005E216C20B32117225E2183120313AC0BA4
:10036000A7299F29080083120313851205128511FE
:10037000AD00AE01AD1B8516AD1F85128519AE17F8
:10038000851DAE13051605122D1B85162D1F851212
:1003900085192E17851D2E1305160512AD1A851603
:1003A000AD1E85128519AE16851DAE1205160512F5
:1003B0002D1A85162D1E851285192E16851D2E12B5
:1003C00005160512AD198516AD1D85128519AE15D8
:1003D000851DAE11051605122D1985162D1D8512C8
:1003E00085192E15851D2E1105160512AD188516B9
:1003F000AD1C85128519AE14851DAE1005160512AB
:100400002D1885162D1C851285192E14851D2E106C
:1004100005160512080083120313071607120716A4
:1004200008008312031387128716871208008312AD
:1004300003132E08080002200D305E216C20831269
:100440000313A0000E3A031D272A89201C2A8312B9
:10045000031320080F3A031D2F2A3C201C2A831265
:1004600003132008103A031D372A74201C2A831214
:1004700003132008113A031D3F2A9F211C2A8312CF
:1004800003132008123A03191B2AFF305E211C2A8D
:02049000482AF8
:02400E00D430AC
:00000001FF
