:020000040000FA
:100000001220E8280030A5202420A000003A03197F
:100010001128B4200130A52024203920A00B0A2863
:10002000E2200800AD201620C32008008316031329
:1000300009308500203086000030870083120313CA
:100040008501860187010800831203138C1E262870
:10005000831203131A0808000230A5202420A100EF
:10006000003A03193828BA206F20A520A10B3428A4
:1000700008008312031385120512A200A21B851625
:10008000A21F851205160512221B8516221F851236
:1000900005160512A21A8516A21E8512051605124E
:1000A000221A8516221E851205160512A21985161A
:1000B000A21D85120516051222198516221D85120C
:1000C00005160512A2188516A21C85120516051222
:1000D00022188516221C85120516051208008312A7
:1000E00003130510051105182314051C231005150D
:1000F00005110518A314051CA310051505110518F5
:100100002315051C2311051505110518A315051C3C
:10011000A3110515051105182316051C2312051535
:1001200005110518A316051CA312051505110518C0
:100130002317051C2313051505110518A317051C06
:10014000A313051505112308080083120313990052
:1001500083160313981CAA280800831203179E0114
:10016000831203179F010800831203130716071257
:10017000071608008312031307100714071007154A
:10018000071107150800831203138B130B13831633
:1001900003138C12831603139A01831603130C3076
:1001A0009900831603139B11831603131815181255
:1001B0009811981618138312031398111816181310
:1001C00098170800831203138712871687120800F6
:0401D00002202C20BD
:02400E00D430AC
:00000001FF
