:020000040000FA
:1000000039208128831203131F3083120313A000A9
:10001000831203132008003A0319382883120313AC
:10002000A01C1528073053201728093053208312AD
:10003000031320080539043A031D20280B305320F0
:10004000831203138C1E08284B2083120313A10074
:100050000A3A031920102108083A031D3128A0107C
:10006000A01121080C3A031D37282011201208285E
:1000700008005B203D20622008008316031309302E
:10008000850020308600003087008312031385012D
:10009000860187010800831203138C1E4D288312EA
:1000A00003131A080800831203139900831603131D
:1000B000981C58280800831203179E018312031707
:1000C0009F010800831203138B130B138316031372
:1000D0008C12831603139A01831603130C309900B4
:1000E000831603139B118316031318151812981106
:1000F00098161813831203139811181618139817CB
:0601000008000220822825
:02400E00D430AC
:00000001FF
