:020000040000FA
:100000004928232005202A200800831603130930DD
:10001000850020308600003087008312031385019D
:10002000860187010800831203138C1E1528831292
:1000300003131A080800831203139900831603138D
:10004000981C20280800831203179E0183120317AF
:100050009F010800831203138B130B1383160313E2
:100060008C12831603139A01831603130C30990024
:10007000831603139B118316031318151812981176
:10008000981618138312031398111816181398173B
:0E0090000800012013201B2081301B204E2869
:02400E00D430AC
:00000001FF
