:020000040000FA
:1000000002203E29882006209E2008008316031324
:1000100009308500203086000030870083120313EA
:10002000850186018701080003308020C120A000DF
:10003000003A031927288F20952004308020C12002
:100040002820BD20802083120313A00B1D28080048
:1000500083120313851005110510A100A201A11B35
:100060008514A11F85100518A217051CA2130515DC
:100070000511211B8514211F851005182217051C49
:10008000221305150511A11A8514A11E8510051846
:10009000A216051CA21205150511211A8514211E90
:1000A000851005182216051C221205150511A11927
:1000B0008514A11D85100518A215051CA211051592
:1000C000051121198514211D851005182215051CFF
:1000D000221105150511A1188514A11C85100518FC
:1000E000A214051CA2100515051121188514211C48
:1000F000851005182214051C22100515051108008D
:1001000083120313990083160313981C8528080093
:10011000831203179E01831203179F0108008312A5
:100120000313871487108714080083120313071022
:10013000071407100715071107150800831203138A
:100140008B130B13831603138C12831603139A015C
:10015000831603130C309900831603139B11831627
:1001600003131815181298119816181383120313F5
:1001700098111816181398170800831203132208F1
:100180000800831203138C1EC328831203131A085A
:10019000080005308020C120A300003A0319DB28A5
:1001A000342106308020C120DC203A2180208312B7
:1001B0000313A30BD1280800831203138512051221
:1001C0008511A400A501A41B8516A41F8512051680
:1001D00005128519A517851DA513241B8516241F37
:1001E00085120516051285192517851D2513A41AD4
:1001F0008516A41E8512051605128519A516851DDE
:10020000A512241A8516241E8512051605128519B5
:100210002516851D2512A4198516A41D85120516FF
:1002200005128519A515851DA51124198516241DEE
:1002300085120516051285192515851D2511A41889
:100240008516A41C8512051605128519A514851D91
:10025000A51024188516241C85120516051285196B
:100260002514851D25100800831203130716071295
:10027000071608008312031325080800C92014205C
:02028000402913
:02400E00D430AC
:00000001FF
